{
  "contractName": "Crowdfunding",
  "abi": [
    {
      "inputs": [],
      "name": "campaignCount",
      "outputs": [
        {
          "internalType": "uint256",
          "name": "",
          "type": "uint256"
        }
      ],
      "stateMutability": "view",
      "type": "function"
    },
    {
      "inputs": [
        {
          "internalType": "uint256",
          "name": "",
          "type": "uint256"
        }
      ],
      "name": "campaigns",
      "outputs": [
        {
          "internalType": "address payable",
          "name": "creator",
          "type": "address"
        },
        {
          "internalType": "string",
          "name": "title",
          "type": "string"
        },
        {
          "internalType": "uint256",
          "name": "goal",
          "type": "uint256"
        },
        {
          "internalType": "uint256",
          "name": "deadline",
          "type": "uint256"
        }
      ],
      "stateMutability": "view",
      "type": "function"
    },
    {
      "inputs": [
        {
          "internalType": "string",
          "name": "_title",
          "type": "string"
        },
        {
          "internalType": "uint256",
          "name": "_goal",
          "type": "uint256"
        },
        {
          "internalType": "uint256",
          "name": "_durationInDays",
          "type": "uint256"
        }
      ],
      "name": "createCampaign",
      "outputs": [],
      "stateMutability": "nonpayable",
      "type": "function"
    }
  ],
  "bytecode": "0x60806040525f8055348015610012575f80fd5b5061099d806100205f395ff3fe608060405234801561000f575f80fd5b506004361061003f575f3560e01c8063141961bc146100435780633020580b146100765780637274e30d14610092575b5f80fd5b61005d600480360381019061005891906102b8565b6100b0565b60405161006d94939291906103bb565b60405180910390f35b610090600480360381019061008b9190610531565b610181565b005b61009a61026f565b6040516100a7919061059d565b60405180910390f35b6001602052805f5260405f205f91509050805f015f9054906101000a900473ffffffffffffffffffffffffffffffffffffffff16908060010180546100f4906105e3565b80601f0160208091040260200160405190810160405280929190818152602001828054610120906105e3565b801561016b5780601f106101425761010080835404028352916020019161016b565b820191905f5260205f20905b81548152906001019060200180831161014e57829003601f168201915b5050505050908060020154908060030154905084565b5f8081548092919061019290610640565b919050555060405180608001604052803373ffffffffffffffffffffffffffffffffffffffff16815260200184815260200183815260200162015180836101d99190610687565b426101e491906106c8565b81525060015f805481526020019081526020015f205f820151815f015f6101000a81548173ffffffffffffffffffffffffffffffffffffffff021916908373ffffffffffffffffffffffffffffffffffffffff16021790555060208201518160010190816102529190610898565b506040820151816002015560608201518160030155905050505050565b5f5481565b5f604051905090565b5f80fd5b5f80fd5b5f819050919050565b61029781610285565b81146102a1575f80fd5b50565b5f813590506102b28161028e565b92915050565b5f602082840312156102cd576102cc61027d565b5b5f6102da848285016102a4565b91505092915050565b5f73ffffffffffffffffffffffffffffffffffffffff82169050919050565b5f61030c826102e3565b9050919050565b61031c81610302565b82525050565b5f81519050919050565b5f82825260208201905092915050565b5f5b8381101561035957808201518184015260208101905061033e565b5f8484015250505050565b5f601f19601f8301169050919050565b5f61037e82610322565b610388818561032c565b935061039881856020860161033c565b6103a181610364565b840191505092915050565b6103b581610285565b82525050565b5f6080820190506103ce5f830187610313565b81810360208301526103e08186610374565b90506103ef60408301856103ac565b6103fc60608301846103ac565b95945050505050565b5f80fd5b5f80fd5b7f4e487b71000000000000000000000000000000000000000000000000000000005f52604160045260245ffd5b61044382610364565b810181811067ffffffffffffffff821117156104625761046161040d565b5b80604052505050565b5f610474610274565b9050610480828261043a565b919050565b5f67ffffffffffffffff82111561049f5761049e61040d565b5b6104a882610364565b9050602081019050919050565b828183375f83830152505050565b5f6104d56104d084610485565b61046b565b9050828152602081018484840111156104f1576104f0610409565b5b6104fc8482856104b5565b509392505050565b5f82601f83011261051857610517610405565b5b81356105288482602086016104c3565b91505092915050565b5f805f606084860312156105485761054761027d565b5b5f84013567ffffffffffffffff81111561056557610564610281565b5b61057186828701610504565b9350506020610582868287016102a4565b9250506040610593868287016102a4565b9150509250925092565b5f6020820190506105b05f8301846103ac565b92915050565b7f4e487b71000000000000000000000000000000000000000000000000000000005f52602260045260245ffd5b5f60028204905060018216806105fa57607f821691505b60208210810361060d5761060c6105b6565b5b50919050565b7f4e487b71000000000000000000000000000000000000000000000000000000005f52601160045260245ffd5b5f61064a82610285565b91507fffffffffffffffffffffffffffffffffffffffffffffffffffffffffffffffff820361067c5761067b610613565b5b600182019050919050565b5f61069182610285565b915061069c83610285565b92508282026106aa81610285565b915082820484148315176106c1576106c0610613565b5b5092915050565b5f6106d282610285565b91506106dd83610285565b92508282019050808211156106f5576106f4610613565b5b92915050565b5f819050815f5260205f209050919050565b5f6020601f8301049050919050565b5f82821b905092915050565b5f600883026107577fffffffffffffffffffffffffffffffffffffffffffffffffffffffffffffffff8261071c565b610761868361071c565b95508019841693508086168417925050509392505050565b5f819050919050565b5f61079c61079761079284610285565b610779565b610285565b9050919050565b5f819050919050565b6107b583610782565b6107c96107c1826107a3565b848454610728565b825550505050565b5f90565b6107dd6107d1565b6107e88184846107ac565b505050565b5b8181101561080b576108005f826107d5565b6001810190506107ee565b5050565b601f82111561085057610821816106fb565b61082a8461070d565b81016020851015610839578190505b61084d6108458561070d565b8301826107ed565b50505b505050565b5f82821c905092915050565b5f6108705f1984600802610855565b1980831691505092915050565b5f6108888383610861565b9150826002028217905092915050565b6108a182610322565b67ffffffffffffffff8111156108ba576108b961040d565b5b6108c482546105e3565b6108cf82828561080f565b5f60209050601f831160018114610900575f84156108ee578287015190505b6108f8858261087d565b86555061095f565b601f19841661090e866106fb565b5f5b8281101561093557848901518255600182019150602085019450602081019050610910565b86831015610952578489015161094e601f891682610861565b8355505b6001600288020188555050505b50505050505056fea26469706673582212201c0843cee62c52e893c41797faa894fb61683ff22fd4c452334d8d8b212a3a4b64736f6c63430008150033",
  "immutableReferences": {},
  "source": "// SPDX-License-Identifier: MIT\r\npragma solidity ^0.8.21;\r\n\r\ncontract Crowdfunding {\r\n    uint public campaignCount = 0;\r\n\r\n    struct Campaign {\r\n        address payable creator;\r\n        string title;\r\n        uint goal;\r\n        uint deadline;\r\n    }\r\n\r\n    mapping(uint => Campaign) public campaigns;\r\n\r\n    function createCampaign(string memory _title, uint _goal, uint _durationInDays) public {\r\n        campaignCount++;\r\n        campaigns[campaignCount] = Campaign(\r\n            payable(msg.sender),\r\n            _title,\r\n            _goal,\r\n            block.timestamp + (_durationInDays * 1 days)\r\n        );\r\n    }\r\n}\r\n",
  "sourcePath": "C:\\Users\\HP\\crowdfunding\\contracts\\Crowdfunding.sol",
  "compiler": {
    "name": "solc",
    "version": "0.8.21+commit.d9974bed.Emscripten.clang"
  },
  "schemaVersion": "3.4.16",
  "updatedAt": "2025-04-19T09:29:21.239Z",
  "devdoc": {
    "kind": "dev",
    "methods": {},
    "version": 1
  },
  "userdoc": {
    "kind": "user",
    "methods": {},
    "version": 1
  }
}