{
  "_format": "hh-sol-artifact-1",
  "contractName": "Crowdfunding",
  "sourceName": "contracts/Crowdfunding.sol",
  "abi": [
    {
      "anonymous": false,
      "inputs": [
        {
          "indexed": false,
          "internalType": "uint256",
          "name": "campaignId",
          "type": "uint256"
        }
      ],
      "name": "CampaignCancelled",
      "type": "event"
    },
    {
      "anonymous": false,
      "inputs": [
        {
          "indexed": false,
          "internalType": "uint256",
          "name": "campaignId",
          "type": "uint256"
        },
        {
          "indexed": false,
          "internalType": "string",
          "name": "title",
          "type": "string"
        },
        {
          "indexed": false,
          "internalType": "uint256",
          "name": "goal",
          "type": "uint256"
        },
        {
          "indexed": false,
          "internalType": "uint256",
          "name": "deadline",
          "type": "uint256"
        },
        {
          "indexed": false,
          "internalType": "address",
          "name": "creator",
          "type": "address"
        }
      ],
      "name": "CampaignCreated",
      "type": "event"
    },
    {
      "anonymous": false,
      "inputs": [
        {
          "indexed": false,
          "internalType": "uint256",
          "name": "campaignId",
          "type": "uint256"
        },
        {
          "indexed": false,
          "internalType": "string",
          "name": "newTitle",
          "type": "string"
        },
        {
          "indexed": false,
          "internalType": "uint256",
          "name": "newGoal",
          "type": "uint256"
        },
        {
          "indexed": false,
          "internalType": "uint256",
          "name": "newDeadline",
          "type": "uint256"
        }
      ],
      "name": "CampaignEdited",
      "type": "event"
    },
    {
      "anonymous": false,
      "inputs": [
        {
          "indexed": false,
          "internalType": "uint256",
          "name": "campaignId",
          "type": "uint256"
        },
        {
          "indexed": false,
          "internalType": "address",
          "name": "backer",
          "type": "address"
        },
        {
          "indexed": false,
          "internalType": "uint256",
          "name": "amount",
          "type": "uint256"
        }
      ],
      "name": "ContributionMade",
      "type": "event"
    },
    {
      "anonymous": false,
      "inputs": [
        {
          "indexed": false,
          "internalType": "uint256",
          "name": "campaignId",
          "type": "uint256"
        },
        {
          "indexed": false,
          "internalType": "address",
          "name": "creator",
          "type": "address"
        },
        {
          "indexed": false,
          "internalType": "uint256",
          "name": "amount",
          "type": "uint256"
        }
      ],
      "name": "FundsReleased",
      "type": "event"
    },
    {
      "anonymous": false,
      "inputs": [
        {
          "indexed": false,
          "internalType": "uint256",
          "name": "campaignId",
          "type": "uint256"
        },
        {
          "indexed": false,
          "internalType": "address",
          "name": "backer",
          "type": "address"
        },
        {
          "indexed": false,
          "internalType": "uint256",
          "name": "amount",
          "type": "uint256"
        }
      ],
      "name": "RefundIssued",
      "type": "event"
    },
    {
      "inputs": [],
      "name": "campaignCount",
      "outputs": [
        {
          "internalType": "uint256",
          "name": "",
          "type": "uint256"
        }
      ],
      "stateMutability": "view",
      "type": "function"
    },
    {
      "inputs": [
        {
          "internalType": "uint256",
          "name": "",
          "type": "uint256"
        }
      ],
      "name": "campaigns",
      "outputs": [
        {
          "internalType": "string",
          "name": "title",
          "type": "string"
        },
        {
          "internalType": "uint256",
          "name": "goal",
          "type": "uint256"
        },
        {
          "internalType": "uint256",
          "name": "deadline",
          "type": "uint256"
        },
        {
          "internalType": "uint256",
          "name": "totalContributed",
          "type": "uint256"
        },
        {
          "internalType": "uint256",
          "name": "totalBackers",
          "type": "uint256"
        },
        {
          "internalType": "address",
          "name": "creator",
          "type": "address"
        },
        {
          "internalType": "bool",
          "name": "isFunded",
          "type": "bool"
        },
        {
          "internalType": "bool",
          "name": "isRefunded",
          "type": "bool"
        },
        {
          "internalType": "bool",
          "name": "isCancelled",
          "type": "bool"
        }
      ],
      "stateMutability": "view",
      "type": "function"
    },
    {
      "inputs": [
        {
          "internalType": "uint256",
          "name": "_campaignId",
          "type": "uint256"
        }
      ],
      "name": "cancelCampaign",
      "outputs": [],
      "stateMutability": "nonpayable",
      "type": "function"
    },
    {
      "inputs": [
        {
          "internalType": "uint256",
          "name": "_campaignId",
          "type": "uint256"
        }
      ],
      "name": "contribute",
      "outputs": [],
      "stateMutability": "payable",
      "type": "function"
    },
    {
      "inputs": [
        {
          "internalType": "uint256",
          "name": "",
          "type": "uint256"
        },
        {
          "internalType": "address",
          "name": "",
          "type": "address"
        }
      ],
      "name": "contributions",
      "outputs": [
        {
          "internalType": "uint256",
          "name": "",
          "type": "uint256"
        }
      ],
      "stateMutability": "view",
      "type": "function"
    },
    {
      "inputs": [
        {
          "internalType": "string",
          "name": "_title",
          "type": "string"
        },
        {
          "internalType": "uint256",
          "name": "_goal",
          "type": "uint256"
        },
        {
          "internalType": "uint256",
          "name": "_deadline",
          "type": "uint256"
        }
      ],
      "name": "createCampaign",
      "outputs": [],
      "stateMutability": "nonpayable",
      "type": "function"
    },
    {
      "inputs": [
        {
          "internalType": "uint256",
          "name": "_campaignId",
          "type": "uint256"
        },
        {
          "internalType": "string",
          "name": "_newTitle",
          "type": "string"
        },
        {
          "internalType": "uint256",
          "name": "_newGoal",
          "type": "uint256"
        },
        {
          "internalType": "uint256",
          "name": "_newDeadline",
          "type": "uint256"
        }
      ],
      "name": "editCampaign",
      "outputs": [],
      "stateMutability": "nonpayable",
      "type": "function"
    },
    {
      "inputs": [],
      "name": "getCampaignCount",
      "outputs": [
        {
          "internalType": "uint256",
          "name": "",
          "type": "uint256"
        }
      ],
      "stateMutability": "view",
      "type": "function"
    },
    {
      "inputs": [
        {
          "internalType": "uint256",
          "name": "_campaignId",
          "type": "uint256"
        }
      ],
      "name": "getCampaignDetails",
      "outputs": [
        {
          "internalType": "string",
          "name": "title",
          "type": "string"
        },
        {
          "internalType": "uint256",
          "name": "goal",
          "type": "uint256"
        },
        {
          "internalType": "uint256",
          "name": "deadline",
          "type": "uint256"
        },
        {
          "internalType": "uint256",
          "name": "totalContributed",
          "type": "uint256"
        },
        {
          "internalType": "uint256",
          "name": "totalBackers",
          "type": "uint256"
        },
        {
          "internalType": "address",
          "name": "creator",
          "type": "address"
        },
        {
          "internalType": "bool",
          "name": "isFunded",
          "type": "bool"
        },
        {
          "internalType": "bool",
          "name": "isRefunded",
          "type": "bool"
        },
        {
          "internalType": "bool",
          "name": "isCancelled",
          "type": "bool"
        }
      ],
      "stateMutability": "view",
      "type": "function"
    },
    {
      "inputs": [
        {
          "internalType": "uint256",
          "name": "_campaignId",
          "type": "uint256"
        },
        {
          "internalType": "address",
          "name": "backer",
          "type": "address"
        }
      ],
      "name": "getContributions",
      "outputs": [
        {
          "internalType": "uint256",
          "name": "",
          "type": "uint256"
        }
      ],
      "stateMutability": "view",
      "type": "function"
    },
    {
      "inputs": [
        {
          "internalType": "uint256",
          "name": "_campaignId",
          "type": "uint256"
        }
      ],
      "name": "refundContribution",
      "outputs": [],
      "stateMutability": "nonpayable",
      "type": "function"
    },
    {
      "inputs": [
        {
          "internalType": "uint256",
          "name": "_campaignId",
          "type": "uint256"
        }
      ],
      "name": "releaseFunds",
      "outputs": [],
      "stateMutability": "nonpayable",
      "type": "function"
    }
  ],
  "bytecode": "0x6080604052348015600f57600080fd5b506001600081905550612811806100276000396000f3fe6080604052600436106100a75760003560e01c80637274e30d116100645780637274e30d146101d45780637f647f9d146101ff578063aafc92d614610228578063c1cbbca714610265578063d993de6214610281578063dd03a397146102c6576100a7565b8063141961bc146100ac5780633020580b146100f15780633d891f591461011a57806345598b4a146101575780634d68282f146101805780636caa9218146101a9575b600080fd5b3480156100b857600080fd5b506100d360048036038101906100ce91906115e3565b6102ef565b6040516100e89998979695949392919061170b565b60405180910390f35b3480156100fd57600080fd5b50610118600480360381019061011391906118d4565b61040c565b005b34801561012657600080fd5b50610141600480360381019061013c919061196f565b61064e565b60405161014e91906119af565b60405180910390f35b34801561016357600080fd5b5061017e600480360381019061017991906115e3565b610673565b005b34801561018c57600080fd5b506101a760048036038101906101a291906115e3565b610828565b005b3480156101b557600080fd5b506101be610b39565b6040516101cb91906119af565b60405180910390f35b3480156101e057600080fd5b506101e9610b43565b6040516101f691906119af565b60405180910390f35b34801561020b57600080fd5b50610226600480360381019061022191906115e3565b610b49565b005b34801561023457600080fd5b5061024f600480360381019061024a919061196f565b610e5f565b60405161025c91906119af565b60405180910390f35b61027f600480360381019061027a91906115e3565b610eba565b005b34801561028d57600080fd5b506102a860048036038101906102a391906115e3565b6110e0565b6040516102bd9998979695949392919061170b565b60405180910390f35b3480156102d257600080fd5b506102ed60048036038101906102e891906119ca565b6112c0565b005b600160205280600052604060002060009150905080600001805461031290611a7c565b80601f016020809104026020016040519081016040528092919081815260200182805461033e90611a7c565b801561038b5780601f106103605761010080835404028352916020019161038b565b820191906000526020600020905b81548152906001019060200180831161036e57829003601f168201915b5050505050908060010154908060020154908060030154908060040154908060050160009054906101000a900473ffffffffffffffffffffffffffffffffffffffff16908060050160149054906101000a900460ff16908060050160159054906101000a900460ff16908060050160169054906101000a900460ff16905089565b6000821161044f576040517f08c379a000000000000000000000000000000000000000000000000000000000815260040161044690611af9565b60405180910390fd5b428111610491576040517f08c379a000000000000000000000000000000000000000000000000000000000815260040161048890611b65565b60405180910390fd5b600360008154809291906104a490611bb4565b919050555060405180610120016040528084815260200183815260200182815260200160008152602001600081526020013373ffffffffffffffffffffffffffffffffffffffff1681526020016000151581526020016000151581526020016000151581525060016000600354815260200190815260200160002060008201518160000190816105349190611da8565b506020820151816001015560408201518160020155606082015181600301556080820151816004015560a08201518160050160006101000a81548173ffffffffffffffffffffffffffffffffffffffff021916908373ffffffffffffffffffffffffffffffffffffffff16021790555060c08201518160050160146101000a81548160ff02191690831515021790555060e08201518160050160156101000a81548160ff0219169083151502179055506101008201518160050160166101000a81548160ff0219169083151502179055509050507f55c246c9acac35defa7b5b11325208f9615273b139a7d1642a880afb4568637e60035484848433604051610641959493929190611e7a565b60405180910390a1505050565b6002602052816000526040600020602052806000526040600020600091509150505481565b61067b611540565b60006001600083815260200190815260200160002090503373ffffffffffffffffffffffffffffffffffffffff168160050160009054906101000a900473ffffffffffffffffffffffffffffffffffffffff1673ffffffffffffffffffffffffffffffffffffffff1614610724576040517f08c379a000000000000000000000000000000000000000000000000000000000815260040161071b90611f20565b60405180910390fd5b8060050160169054906101000a900460ff1615610776576040517f08c379a000000000000000000000000000000000000000000000000000000000815260040161076d90611f8c565b60405180910390fd5b8060050160149054906101000a900460ff16156107c8576040517f08c379a00000000000000000000000000000000000000000000000000000000081526004016107bf90611ff8565b60405180910390fd5b60018160050160166101000a81548160ff0219169083151502179055507f403b6718db13878ac16c27decb08f09d3a10f116c7c25af575ff5bfbc11ae9e68260405161081491906119af565b60405180910390a15061082561158f565b50565b610830611540565b6000600160008381526020019081526020016000209050806001015481600301541015610892576040517f08c379a000000000000000000000000000000000000000000000000000000000815260040161088990612064565b60405180910390fd5b8060050160149054906101000a900460ff16156108e4576040517f08c379a00000000000000000000000000000000000000000000000000000000081526004016108db90611ff8565b60405180910390fd5b8060050160169054906101000a900460ff1615610936576040517f08c379a000000000000000000000000000000000000000000000000000000000815260040161092d906120d0565b60405180910390fd5b806002015442118061099757508060050160009054906101000a900473ffffffffffffffffffffffffffffffffffffffff1673ffffffffffffffffffffffffffffffffffffffff163373ffffffffffffffffffffffffffffffffffffffff16145b6109d6576040517f08c379a00000000000000000000000000000000000000000000000000000000081526004016109cd90612162565b60405180910390fd5b60018160050160146101000a81548160ff02191690831515021790555060008160030154905060008260050160009054906101000a900473ffffffffffffffffffffffffffffffffffffffff1673ffffffffffffffffffffffffffffffffffffffff1682604051610a46906121b3565b60006040518083038185875af1925050503d8060008114610a83576040519150601f19603f3d011682016040523d82523d6000602084013e610a88565b606091505b5050905080610acc576040517f08c379a0000000000000000000000000000000000000000000000000000000008152600401610ac390612214565b60405180910390fd5b7f6e3c6096795c8298a218b2cfb8bde42726ff7c9a3d27b4d3ba41ab7f74feb5fb848460050160009054906101000a900473ffffffffffffffffffffffffffffffffffffffff1684604051610b2393929190612234565b60405180910390a1505050610b3661158f565b50565b6000600354905090565b60035481565b610b51611540565b60006001600083815260200190815260200160002090508060020154421180610b8857508060050160169054906101000a900460ff165b610bc7576040517f08c379a0000000000000000000000000000000000000000000000000000000008152600401610bbe906122b7565b60405180910390fd5b806001015481600301541080610beb57508060050160169054906101000a900460ff165b610c2a576040517f08c379a0000000000000000000000000000000000000000000000000000000008152600401610c2190612323565b60405180910390fd5b8060050160159054906101000a900460ff1615610c7c576040517f08c379a0000000000000000000000000000000000000000000000000000000008152600401610c739061238f565b60405180910390fd5b60006002600084815260200190815260200160002060003373ffffffffffffffffffffffffffffffffffffffff1673ffffffffffffffffffffffffffffffffffffffff16815260200190815260200160002054905060008111610d14576040517f08c379a0000000000000000000000000000000000000000000000000000000008152600401610d0b90612421565b60405180910390fd5b60006002600085815260200190815260200160002060003373ffffffffffffffffffffffffffffffffffffffff1673ffffffffffffffffffffffffffffffffffffffff1681526020019081526020016000208190555060003373ffffffffffffffffffffffffffffffffffffffff1682604051610d90906121b3565b60006040518083038185875af1925050503d8060008114610dcd576040519150601f19603f3d011682016040523d82523d6000602084013e610dd2565b606091505b5050905080610e16576040517f08c379a0000000000000000000000000000000000000000000000000000000008152600401610e0d9061248d565b60405180910390fd5b7f7a482fdeb6bc9a1376f597068a214a7a39472bb2eff1b8cad21ba04f49ddca1b843384604051610e4993929190612234565b60405180910390a1505050610e5c61158f565b50565b60006002600084815260200190815260200160002060008373ffffffffffffffffffffffffffffffffffffffff1673ffffffffffffffffffffffffffffffffffffffff16815260200190815260200160002054905092915050565b600060016000838152602001908152602001600020905080600201544210610f17576040517f08c379a0000000000000000000000000000000000000000000000000000000008152600401610f0e906124f9565b60405180910390fd5b60003411610f5a576040517f08c379a0000000000000000000000000000000000000000000000000000000008152600401610f519061258b565b60405180910390fd5b8060050160169054906101000a900460ff1615610fac576040517f08c379a0000000000000000000000000000000000000000000000000000000008152600401610fa3906120d0565b60405180910390fd5b60006002600084815260200190815260200160002060003373ffffffffffffffffffffffffffffffffffffffff1673ffffffffffffffffffffffffffffffffffffffff168152602001908152602001600020540361101f5780600401600081548092919061101990611bb4565b91905055505b346002600084815260200190815260200160002060003373ffffffffffffffffffffffffffffffffffffffff1673ffffffffffffffffffffffffffffffffffffffff168152602001908152602001600020600082825461107f91906125ab565b925050819055503481600301600082825461109a91906125ab565b925050819055507f0a4a91237423e0a1766a761c7cb029311d8b95d6b1b81db1b949a70c98b4e08e8233346040516110d493929190612234565b60405180910390a15050565b60606000806000806000806000806000600160008c81526020019081526020016000206040518061012001604052908160008201805461111f90611a7c565b80601f016020809104026020016040519081016040528092919081815260200182805461114b90611a7c565b80156111985780601f1061116d57610100808354040283529160200191611198565b820191906000526020600020905b81548152906001019060200180831161117b57829003601f168201915b50505050508152602001600182015481526020016002820154815260200160038201548152602001600482015481526020016005820160009054906101000a900473ffffffffffffffffffffffffffffffffffffffff1673ffffffffffffffffffffffffffffffffffffffff1673ffffffffffffffffffffffffffffffffffffffff1681526020016005820160149054906101000a900460ff161515151581526020016005820160159054906101000a900460ff161515151581526020016005820160169054906101000a900460ff1615151515815250509050806000015181602001518260400151836060015184608001518560a001518660c001518760e00151886101000151995099509950995099509950995099509950509193959799909294969850565b60006001600086815260200190815260200160002090503373ffffffffffffffffffffffffffffffffffffffff168160050160009054906101000a900473ffffffffffffffffffffffffffffffffffffffff1673ffffffffffffffffffffffffffffffffffffffff1614611369576040517f08c379a00000000000000000000000000000000000000000000000000000000081526004016113609061262b565b60405180910390fd5b806002015442106113af576040517f08c379a00000000000000000000000000000000000000000000000000000000081526004016113a690612697565b60405180910390fd5b8060050160149054906101000a900460ff1615611401576040517f08c379a00000000000000000000000000000000000000000000000000000000081526004016113f890612703565b60405180910390fd5b8060050160169054906101000a900460ff1615611453576040517f08c379a000000000000000000000000000000000000000000000000000000000815260040161144a906120d0565b60405180910390fd5b60008311611496576040517f08c379a000000000000000000000000000000000000000000000000000000000815260040161148d90611af9565b60405180910390fd5b4282116114d8576040517f08c379a00000000000000000000000000000000000000000000000000000000081526004016114cf90611b65565b60405180910390fd5b838160000190816114e99190611da8565b508281600101819055508181600201819055507f1348d8aa31bae00fbf871faa7b4817b12adebc384c5d0d707d63f4e32cdf68b1858585856040516115319493929190612723565b60405180910390a15050505050565b600260005403611585576040517f08c379a000000000000000000000000000000000000000000000000000000000815260040161157c906127bb565b60405180910390fd5b6002600081905550565b6001600081905550565b6000604051905090565b600080fd5b600080fd5b6000819050919050565b6115c0816115ad565b81146115cb57600080fd5b50565b6000813590506115dd816115b7565b92915050565b6000602082840312156115f9576115f86115a3565b5b6000611607848285016115ce565b91505092915050565b600081519050919050565b600082825260208201905092915050565b60005b8381101561164a57808201518184015260208101905061162f565b60008484015250505050565b6000601f19601f8301169050919050565b600061167282611610565b61167c818561161b565b935061168c81856020860161162c565b61169581611656565b840191505092915050565b6116a9816115ad565b82525050565b600073ffffffffffffffffffffffffffffffffffffffff82169050919050565b60006116da826116af565b9050919050565b6116ea816116cf565b82525050565b60008115159050919050565b611705816116f0565b82525050565b6000610120820190508181036000830152611726818c611667565b9050611735602083018b6116a0565b611742604083018a6116a0565b61174f60608301896116a0565b61175c60808301886116a0565b61176960a08301876116e1565b61177660c08301866116fc565b61178360e08301856116fc565b6117916101008301846116fc565b9a9950505050505050505050565b600080fd5b600080fd5b7f4e487b7100000000000000000000000000000000000000000000000000000000600052604160045260246000fd5b6117e182611656565b810181811067ffffffffffffffff82111715611800576117ff6117a9565b5b80604052505050565b6000611813611599565b905061181f82826117d8565b919050565b600067ffffffffffffffff82111561183f5761183e6117a9565b5b61184882611656565b9050602081019050919050565b82818337600083830152505050565b600061187761187284611824565b611809565b905082815260208101848484011115611893576118926117a4565b5b61189e848285611855565b509392505050565b600082601f8301126118bb576118ba61179f565b5b81356118cb848260208601611864565b91505092915050565b6000806000606084860312156118ed576118ec6115a3565b5b600084013567ffffffffffffffff81111561190b5761190a6115a8565b5b611917868287016118a6565b9350506020611928868287016115ce565b9250506040611939868287016115ce565b9150509250925092565b61194c816116cf565b811461195757600080fd5b50565b60008135905061196981611943565b92915050565b60008060408385031215611986576119856115a3565b5b6000611994858286016115ce565b92505060206119a58582860161195a565b9150509250929050565b60006020820190506119c460008301846116a0565b92915050565b600080600080608085870312156119e4576119e36115a3565b5b60006119f2878288016115ce565b945050602085013567ffffffffffffffff811115611a1357611a126115a8565b5b611a1f878288016118a6565b9350506040611a30878288016115ce565b9250506060611a41878288016115ce565b91505092959194509250565b7f4e487b7100000000000000000000000000000000000000000000000000000000600052602260045260246000fd5b60006002820490506001821680611a9457607f821691505b602082108103611aa757611aa6611a4d565b5b50919050565b7f476f616c206d7573742062652067726561746572207468616e20300000000000600082015250565b6000611ae3601b8361161b565b9150611aee82611aad565b602082019050919050565b60006020820190508181036000830152611b1281611ad6565b9050919050565b7f446561646c696e65206d75737420626520696e20746865206675747572650000600082015250565b6000611b4f601e8361161b565b9150611b5a82611b19565b602082019050919050565b60006020820190508181036000830152611b7e81611b42565b9050919050565b7f4e487b7100000000000000000000000000000000000000000000000000000000600052601160045260246000fd5b6000611bbf826115ad565b91507fffffffffffffffffffffffffffffffffffffffffffffffffffffffffffffffff8203611bf157611bf0611b85565b5b600182019050919050565b60008190508160005260206000209050919050565b60006020601f8301049050919050565b600082821b905092915050565b600060088302611c5e7fffffffffffffffffffffffffffffffffffffffffffffffffffffffffffffffff82611c21565b611c688683611c21565b95508019841693508086168417925050509392505050565b6000819050919050565b6000611ca5611ca0611c9b846115ad565b611c80565b6115ad565b9050919050565b6000819050919050565b611cbf83611c8a565b611cd3611ccb82611cac565b848454611c2e565b825550505050565b600090565b611ce8611cdb565b611cf3818484611cb6565b505050565b5b81811015611d1757611d0c600082611ce0565b600181019050611cf9565b5050565b601f821115611d5c57611d2d81611bfc565b611d3684611c11565b81016020851015611d45578190505b611d59611d5185611c11565b830182611cf8565b50505b505050565b600082821c905092915050565b6000611d7f60001984600802611d61565b1980831691505092915050565b6000611d988383611d6e565b9150826002028217905092915050565b611db182611610565b67ffffffffffffffff811115611dca57611dc96117a9565b5b611dd48254611a7c565b611ddf828285611d1b565b600060209050601f831160018114611e125760008415611e00578287015190505b611e0a8582611d8c565b865550611e72565b601f198416611e2086611bfc565b60005b82811015611e4857848901518255600182019150602085019450602081019050611e23565b86831015611e655784890151611e61601f891682611d6e565b8355505b6001600288020188555050505b505050505050565b600060a082019050611e8f60008301886116a0565b8181036020830152611ea18187611667565b9050611eb060408301866116a0565b611ebd60608301856116a0565b611eca60808301846116e1565b9695505050505050565b7f4f6e6c792063726561746f722063616e2063616e63656c000000000000000000600082015250565b6000611f0a60178361161b565b9150611f1582611ed4565b602082019050919050565b60006020820190508181036000830152611f3981611efd565b9050919050565b7f416c72656164792063616e63656c6c6564000000000000000000000000000000600082015250565b6000611f7660118361161b565b9150611f8182611f40565b602082019050919050565b60006020820190508181036000830152611fa581611f69565b9050919050565b7f46756e647320616c72656164792072656c656173656400000000000000000000600082015250565b6000611fe260168361161b565b9150611fed82611fac565b602082019050919050565b6000602082019050818103600083015261201181611fd5565b9050919050565b7f46756e64696e6720676f616c206e6f74206d6574000000000000000000000000600082015250565b600061204e60148361161b565b915061205982612018565b602082019050919050565b6000602082019050818103600083015261207d81612041565b9050919050565b7f43616d706169676e2069732063616e63656c6c65640000000000000000000000600082015250565b60006120ba60158361161b565b91506120c582612084565b602082019050919050565b600060208201905081810360008301526120e9816120ad565b9050919050565b7f4f6e6c792063726561746f722063616e2072656c65617365206265666f72652060008201527f646561646c696e65000000000000000000000000000000000000000000000000602082015250565b600061214c60288361161b565b9150612157826120f0565b604082019050919050565b6000602082019050818103600083015261217b8161213f565b9050919050565b600081905092915050565b50565b600061219d600083612182565b91506121a88261218d565b600082019050919050565b60006121be82612190565b9150819050919050565b7f4661696c656420746f2073656e64204574686572000000000000000000000000600082015250565b60006121fe60148361161b565b9150612209826121c8565b602082019050919050565b6000602082019050818103600083015261222d816121f1565b9050919050565b600060608201905061224960008301866116a0565b61225660208301856116e1565b61226360408301846116a0565b949350505050565b7f43616d706169676e207374696c6c206163746976650000000000000000000000600082015250565b60006122a160158361161b565b91506122ac8261226b565b602082019050919050565b600060208201905081810360008301526122d081612294565b9050919050565b7f46756e64696e6720676f616c20776173206d6574000000000000000000000000600082015250565b600061230d60148361161b565b9150612318826122d7565b602082019050919050565b6000602082019050818103600083015261233c81612300565b9050919050565b7f526566756e647320616c72656164792070726f63657373656400000000000000600082015250565b600061237960198361161b565b915061238482612343565b602082019050919050565b600060208201905081810360008301526123a88161236c565b9050919050565b7f4e6f20636f6e747269627574696f6e7320666f756e6420666f722073656e646560008201527f7200000000000000000000000000000000000000000000000000000000000000602082015250565b600061240b60218361161b565b9150612416826123af565b604082019050919050565b6000602082019050818103600083015261243a816123fe565b9050919050565b7f526566756e64206661696c656400000000000000000000000000000000000000600082015250565b6000612477600d8361161b565b915061248282612441565b602082019050919050565b600060208201905081810360008301526124a68161246a565b9050919050565b7f43616d706169676e2068617320656e6465640000000000000000000000000000600082015250565b60006124e360128361161b565b91506124ee826124ad565b602082019050919050565b60006020820190508181036000830152612512816124d6565b9050919050565b7f436f6e747269627574696f6e206d75737420626520677265617465722074686160008201527f6e20300000000000000000000000000000000000000000000000000000000000602082015250565b600061257560238361161b565b915061258082612519565b604082019050919050565b600060208201905081810360008301526125a481612568565b9050919050565b60006125b6826115ad565b91506125c1836115ad565b92508282019050808211156125d9576125d8611b85565b5b92915050565b7f4f6e6c792063726561746f722063616e20656469740000000000000000000000600082015250565b600061261560158361161b565b9150612620826125df565b602082019050919050565b6000602082019050818103600083015261264481612608565b9050919050565b7f43616e6e6f74206564697420616674657220646561646c696e65000000000000600082015250565b6000612681601a8361161b565b915061268c8261264b565b602082019050919050565b600060208201905081810360008301526126b081612674565b9050919050565b7f43616e6e6f7420656469742061667465722066756e64732072656c6561736564600082015250565b60006126ed60208361161b565b91506126f8826126b7565b602082019050919050565b6000602082019050818103600083015261271c816126e0565b9050919050565b600060808201905061273860008301876116a0565b818103602083015261274a8186611667565b905061275960408301856116a0565b61276660608301846116a0565b95945050505050565b7f5265656e7472616e637947756172643a207265656e7472616e742063616c6c00600082015250565b60006127a5601f8361161b565b91506127b08261276f565b602082019050919050565b600060208201905081810360008301526127d481612798565b905091905056fea2646970667358221220274153153014325d82bb30ef0c47d5c2e26fa20efa7de73c0b7e5fd157cc364064736f6c634300081c0033",
  "linkReferences": {},
  "deployedLinkReferences": {}
}